{
  "_format": "hh3-artifact-1",
  "contractName": "EduCred",
  "sourceName": "contracts/EduCred.sol",
  "abi": [
    {
      "inputs": [],
      "stateMutability": "nonpayable",
      "type": "constructor"
    },
    {
      "anonymous": false,
      "inputs": [
        {
          "indexed": true,
          "internalType": "uint256",
          "name": "id",
          "type": "uint256"
        },
        {
          "indexed": false,
          "internalType": "uint8",
          "name": "status",
          "type": "uint8"
        }
      ],
      "name": "ApplicationStatusUpdated",
      "type": "event"
    },
    {
      "anonymous": false,
      "inputs": [
        {
          "indexed": true,
          "internalType": "bytes32",
          "name": "certificateHash",
          "type": "bytes32"
        }
      ],
      "name": "CertificateIssued",
      "type": "event"
    },
    {
      "inputs": [
        {
          "internalType": "uint256",
          "name": "",
          "type": "uint256"
        }
      ],
      "name": "applications",
      "outputs": [
        {
          "internalType": "uint256",
          "name": "id",
          "type": "uint256"
        },
        {
          "internalType": "bytes32",
          "name": "studentHash",
          "type": "bytes32"
        },
        {
          "internalType": "address",
          "name": "targetUniversity",
          "type": "address"
        },
        {
          "internalType": "uint8",
          "name": "status",
          "type": "uint8"
        },
        {
          "internalType": "uint256",
          "name": "timestamp",
          "type": "uint256"
        }
      ],
      "stateMutability": "view",
      "type": "function"
    },
    {
      "inputs": [],
      "name": "getApplicationsCount",
      "outputs": [
        {
          "internalType": "uint256",
          "name": "",
          "type": "uint256"
        }
      ],
      "stateMutability": "view",
      "type": "function"
    },
    {
      "inputs": [
        {
          "internalType": "bytes32",
          "name": "_hash",
          "type": "bytes32"
        }
      ],
      "name": "issueCertificate",
      "outputs": [],
      "stateMutability": "nonpayable",
      "type": "function"
    },
    {
      "inputs": [],
      "name": "owner",
      "outputs": [
        {
          "internalType": "address",
          "name": "",
          "type": "address"
        }
      ],
      "stateMutability": "view",
      "type": "function"
    },
    {
      "inputs": [
        {
          "internalType": "bytes32",
          "name": "_studentHash",
          "type": "bytes32"
        }
      ],
      "name": "submitApplication",
      "outputs": [],
      "stateMutability": "nonpayable",
      "type": "function"
    },
    {
      "inputs": [
        {
          "internalType": "uint256",
          "name": "_id",
          "type": "uint256"
        },
        {
          "internalType": "uint8",
          "name": "_status",
          "type": "uint8"
        }
      ],
      "name": "updateApplicationStatus",
      "outputs": [],
      "stateMutability": "nonpayable",
      "type": "function"
    },
    {
      "inputs": [
        {
          "internalType": "bytes32",
          "name": "",
          "type": "bytes32"
        }
      ],
      "name": "validCertificates",
      "outputs": [
        {
          "internalType": "bool",
          "name": "",
          "type": "bool"
        }
      ],
      "stateMutability": "view",
      "type": "function"
    },
    {
      "inputs": [
        {
          "internalType": "bytes32",
          "name": "_hash",
          "type": "bytes32"
        }
      ],
      "name": "verifyCertificate",
      "outputs": [
        {
          "internalType": "bool",
          "name": "",
          "type": "bool"
        }
      ],
      "stateMutability": "view",
      "type": "function"
    }
  ],
  "bytecode": "0x608060405234801561000f575f80fd5b50600280546001600160a01b031916331790556105e78061002f5f395ff3fe608060405234801561000f575f80fd5b5060043610610085575f3560e01c8063a1f8182411610058578063a1f8182414610111578063be8217b314610124578063dfefadff14610137578063eec0a18a14610182575f80fd5b80630dc021091461008957806365bcc7c41461009e578063850c1768146100b45780638da5cb5b146100e6575b5f80fd5b61009c610097366004610553565b6101a4565b005b6001546040519081526020015b60405180910390f35b6100d66100c2366004610553565b5f9081526020819052604090205460ff1690565b60405190151581526020016100ab565b6002546100f9906001600160a01b031681565b6040516001600160a01b0390911681526020016100ab565b61009c61011f366004610553565b610356565b61009c61013236600461056a565b6103f6565b61014a610145366004610553565b610505565b6040805195865260208601949094526001600160a01b039092169284019290925260ff9091166060830152608082015260a0016100ab565b6100d6610190366004610553565b5f6020819052908152604090205460ff1681565b5f8181526020819052604090205460ff166102145760405162461bcd60e51b815260206004820152602560248201527f43616e6e6f74206170706c79207769746820696e76616c696420636572746966604482015264696361746560d81b60648201526084015b60405180910390fd5b600180546040805160a0810182528281526020808201868152338385019081525f606085018181524260808701908152888a018a559882529451600488027fb10e2d527612073b26eecdfd717e6a320cf44b4afac2b0732d9fcbe2b7fa0cf681019190915592517fb10e2d527612073b26eecdfd717e6a320cf44b4afac2b0732d9fcbe2b7fa0cf784015590517fb10e2d527612073b26eecdfd717e6a320cf44b4afac2b0732d9fcbe2b7fa0cf883018054955160ff16600160a01b026001600160a81b03199096166001600160a01b03909216919091179490941790935594517fb10e2d527612073b26eecdfd717e6a320cf44b4afac2b0732d9fcbe2b7fa0cf9909501949094559051908152909182917fff4a6914fb0bd4cf4c39007d7b466f7f23390a82dc170649a4e3f9e893f1311f91015b60405180910390a25050565b5f8181526020819052604090205460ff16156103b45760405162461bcd60e51b815260206004820152601a60248201527f436572746966696361746520616c726561647920697373756564000000000000604482015260640161020b565b5f81815260208190526040808220805460ff191660011790555182917f615fe29dd761acef07dabe50d28b02874372a0a63ee7fa4221480b34b7ac14ba91a250565b60015482106104405760405162461bcd60e51b8152602060048201526016602482015275125b9d985b1a5908185c1c1b1a58d85d1a5bdb88125160521b604482015260640161020b565b60028160ff1611156104945760405162461bcd60e51b815260206004820152601e60248201527f496e76616c6964207374617475732028303d502c20313d412c20323d52290000604482015260640161020b565b80600183815481106104a8576104a861059d565b5f91825260209182902060049190910201600201805460ff60a01b1916600160a01b60ff94851602179055604051918316825283917fff4a6914fb0bd4cf4c39007d7b466f7f23390a82dc170649a4e3f9e893f1311f910161034a565b60018181548110610514575f80fd5b5f9182526020909120600490910201805460018201546002830154600390930154919350916001600160a01b03811691600160a01b90910460ff169085565b5f60208284031215610563575f80fd5b5035919050565b5f806040838503121561057b575f80fd5b82359150602083013560ff81168114610592575f80fd5b809150509250929050565b634e487b7160e01b5f52603260045260245ffdfea2646970667358221220bab64c6e41e082a0397f520298c3ce4b8bd0e5dddf114538021af615c54461f164736f6c63430008140033",
  "linkReferences": {},
  "deployedLinkReferences": {},
  "immutableReferences": {},
  "inputSourceName": "project/contracts/EduCred.sol",
  "buildInfoId": "solc-0_8_20-2001a12a2a55668a7147e88f5641004119316b28"
}