{
  "_format": "hh3-artifact-1",
  "contractName": "EduCred",
  "sourceName": "contracts/EduCred.sol",
  "abi": [
    {
      "inputs": [],
      "stateMutability": "nonpayable",
      "type": "constructor"
    },
    {
      "inputs": [
        {
          "internalType": "address",
          "name": "owner",
          "type": "address"
        }
      ],
      "name": "OwnableInvalidOwner",
      "type": "error"
    },
    {
      "inputs": [
        {
          "internalType": "address",
          "name": "account",
          "type": "address"
        }
      ],
      "name": "OwnableUnauthorizedAccount",
      "type": "error"
    },
    {
      "anonymous": false,
      "inputs": [
        {
          "indexed": true,
          "internalType": "bytes32",
          "name": "root",
          "type": "bytes32"
        },
        {
          "indexed": true,
          "internalType": "address",
          "name": "issuer",
          "type": "address"
        },
        {
          "indexed": false,
          "internalType": "uint256",
          "name": "batchSize",
          "type": "uint256"
        },
        {
          "indexed": false,
          "internalType": "string",
          "name": "batchId",
          "type": "string"
        }
      ],
      "name": "BatchRootStored",
      "type": "event"
    },
    {
      "anonymous": false,
      "inputs": [
        {
          "indexed": true,
          "internalType": "bytes32",
          "name": "hash",
          "type": "bytes32"
        },
        {
          "indexed": true,
          "internalType": "address",
          "name": "revoker",
          "type": "address"
        },
        {
          "indexed": false,
          "internalType": "uint8",
          "name": "reason",
          "type": "uint8"
        }
      ],
      "name": "CertificateRevoked",
      "type": "event"
    },
    {
      "anonymous": false,
      "inputs": [
        {
          "indexed": true,
          "internalType": "bytes32",
          "name": "hash",
          "type": "bytes32"
        },
        {
          "indexed": true,
          "internalType": "address",
          "name": "issuer",
          "type": "address"
        },
        {
          "indexed": false,
          "internalType": "uint256",
          "name": "timestamp",
          "type": "uint256"
        },
        {
          "indexed": false,
          "internalType": "uint8",
          "name": "certType",
          "type": "uint8"
        }
      ],
      "name": "CertificateStored",
      "type": "event"
    },
    {
      "anonymous": false,
      "inputs": [
        {
          "indexed": true,
          "internalType": "address",
          "name": "issuer",
          "type": "address"
        }
      ],
      "name": "IssuerAuthorized",
      "type": "event"
    },
    {
      "anonymous": false,
      "inputs": [
        {
          "indexed": true,
          "internalType": "address",
          "name": "issuer",
          "type": "address"
        }
      ],
      "name": "IssuerRemoved",
      "type": "event"
    },
    {
      "anonymous": false,
      "inputs": [
        {
          "indexed": true,
          "internalType": "address",
          "name": "previousOwner",
          "type": "address"
        },
        {
          "indexed": true,
          "internalType": "address",
          "name": "newOwner",
          "type": "address"
        }
      ],
      "name": "OwnershipTransferred",
      "type": "event"
    },
    {
      "inputs": [
        {
          "internalType": "address",
          "name": "issuer",
          "type": "address"
        }
      ],
      "name": "addIssuer",
      "outputs": [],
      "stateMutability": "nonpayable",
      "type": "function"
    },
    {
      "inputs": [
        {
          "internalType": "address",
          "name": "",
          "type": "address"
        }
      ],
      "name": "authorizedIssuers",
      "outputs": [
        {
          "internalType": "bool",
          "name": "",
          "type": "bool"
        }
      ],
      "stateMutability": "view",
      "type": "function"
    },
    {
      "inputs": [
        {
          "internalType": "bytes32",
          "name": "",
          "type": "bytes32"
        }
      ],
      "name": "batches",
      "outputs": [
        {
          "internalType": "bytes32",
          "name": "merkleRoot",
          "type": "bytes32"
        },
        {
          "internalType": "address",
          "name": "issuer",
          "type": "address"
        },
        {
          "internalType": "uint256",
          "name": "timestamp",
          "type": "uint256"
        },
        {
          "internalType": "uint256",
          "name": "batchSize",
          "type": "uint256"
        },
        {
          "internalType": "string",
          "name": "batchId",
          "type": "string"
        }
      ],
      "stateMutability": "view",
      "type": "function"
    },
    {
      "inputs": [
        {
          "internalType": "bytes32",
          "name": "",
          "type": "bytes32"
        }
      ],
      "name": "certificateIssuer",
      "outputs": [
        {
          "internalType": "address",
          "name": "",
          "type": "address"
        }
      ],
      "stateMutability": "view",
      "type": "function"
    },
    {
      "inputs": [
        {
          "internalType": "bytes32",
          "name": "",
          "type": "bytes32"
        }
      ],
      "name": "certificates",
      "outputs": [
        {
          "internalType": "bytes32",
          "name": "hash",
          "type": "bytes32"
        },
        {
          "internalType": "address",
          "name": "issuer",
          "type": "address"
        },
        {
          "internalType": "uint256",
          "name": "timestamp",
          "type": "uint256"
        },
        {
          "internalType": "uint8",
          "name": "certType",
          "type": "uint8"
        },
        {
          "internalType": "bool",
          "name": "revoked",
          "type": "bool"
        },
        {
          "internalType": "uint8",
          "name": "revocationReason",
          "type": "uint8"
        }
      ],
      "stateMutability": "view",
      "type": "function"
    },
    {
      "inputs": [],
      "name": "owner",
      "outputs": [
        {
          "internalType": "address",
          "name": "",
          "type": "address"
        }
      ],
      "stateMutability": "view",
      "type": "function"
    },
    {
      "inputs": [
        {
          "internalType": "address",
          "name": "issuer",
          "type": "address"
        }
      ],
      "name": "removeIssuer",
      "outputs": [],
      "stateMutability": "nonpayable",
      "type": "function"
    },
    {
      "inputs": [],
      "name": "renounceOwnership",
      "outputs": [],
      "stateMutability": "nonpayable",
      "type": "function"
    },
    {
      "inputs": [
        {
          "internalType": "bytes32",
          "name": "hash",
          "type": "bytes32"
        },
        {
          "internalType": "uint8",
          "name": "reasonCode",
          "type": "uint8"
        }
      ],
      "name": "revokeHash",
      "outputs": [],
      "stateMutability": "nonpayable",
      "type": "function"
    },
    {
      "inputs": [
        {
          "internalType": "bytes32",
          "name": "",
          "type": "bytes32"
        }
      ],
      "name": "revokedCertificates",
      "outputs": [
        {
          "internalType": "bool",
          "name": "",
          "type": "bool"
        }
      ],
      "stateMutability": "view",
      "type": "function"
    },
    {
      "inputs": [
        {
          "internalType": "bytes32",
          "name": "merkleRoot",
          "type": "bytes32"
        },
        {
          "internalType": "uint256",
          "name": "batchSize",
          "type": "uint256"
        },
        {
          "internalType": "string",
          "name": "batchId",
          "type": "string"
        }
      ],
      "name": "storeBatchRoot",
      "outputs": [],
      "stateMutability": "nonpayable",
      "type": "function"
    },
    {
      "inputs": [
        {
          "internalType": "bytes32",
          "name": "hash",
          "type": "bytes32"
        },
        {
          "internalType": "uint8",
          "name": "certType",
          "type": "uint8"
        }
      ],
      "name": "storeCertificate",
      "outputs": [],
      "stateMutability": "nonpayable",
      "type": "function"
    },
    {
      "inputs": [
        {
          "internalType": "bytes32",
          "name": "_hash",
          "type": "bytes32"
        }
      ],
      "name": "storeHash",
      "outputs": [],
      "stateMutability": "nonpayable",
      "type": "function"
    },
    {
      "inputs": [
        {
          "internalType": "address",
          "name": "newOwner",
          "type": "address"
        }
      ],
      "name": "transferOwnership",
      "outputs": [],
      "stateMutability": "nonpayable",
      "type": "function"
    },
    {
      "inputs": [
        {
          "internalType": "bytes32",
          "name": "",
          "type": "bytes32"
        }
      ],
      "name": "validCertificates",
      "outputs": [
        {
          "internalType": "bool",
          "name": "",
          "type": "bool"
        }
      ],
      "stateMutability": "view",
      "type": "function"
    },
    {
      "inputs": [
        {
          "internalType": "bytes32",
          "name": "_hash",
          "type": "bytes32"
        }
      ],
      "name": "verifyHash",
      "outputs": [
        {
          "internalType": "bool",
          "name": "",
          "type": "bool"
        }
      ],
      "stateMutability": "view",
      "type": "function"
    },
    {
      "inputs": [
        {
          "internalType": "bytes32",
          "name": "hash",
          "type": "bytes32"
        }
      ],
      "name": "verifyHashFull",
      "outputs": [
        {
          "internalType": "bool",
          "name": "exists",
          "type": "bool"
        },
        {
          "internalType": "bool",
          "name": "revoked",
          "type": "bool"
        },
        {
          "internalType": "address",
          "name": "issuer",
          "type": "address"
        },
        {
          "internalType": "uint256",
          "name": "timestamp",
          "type": "uint256"
        }
      ],
      "stateMutability": "view",
      "type": "function"
    }
  ],
  "bytecode": "0x608060405234801561000f575f80fd5b50338061003557604051631e4fbdf760e01b81525f600482015260240160405180910390fd5b61003e8161005d565b50335f908152600460205260409020805460ff191660011790556100ac565b5f80546001600160a01b038381166001600160a01b0319831681178455604051919092169283917f8be0079c531659141344cd1fd0a4f28419497f9722a3daafe3b4186f6b6457e09190a35050565b61103e806100b95f395ff3fe608060405234801561000f575f80fd5b5060043610610106575f3560e01c80638da5cb5b1161009e578063eec0a18a1161006e578063eec0a18a146102bf578063ef020f4a146102e1578063f280547a14610303578063f2fde38b14610347578063f731fa0f1461035a575f80fd5b80638da5cb5b1461021d5780639e84a48014610241578063c81e25ab14610273578063dc25788114610297575f80fd5b80635e2d1d21116100d95780635e2d1d2114610158578063715018a61461016b578063742f0688146101735780637fe888851461020a575f80fd5b806307dd231d1461010a57806320694db01461011f57806323dc7f7f1461013257806347bc709314610145575b5f80fd5b61011d610118366004610caf565b61037c565b005b61011d61012d366004610ce2565b6105b1565b61011d610140366004610caf565b61065a565b61011d610153366004610ce2565b610779565b61011d610166366004610d23565b6107c9565b61011d61090a565b6101c7610181366004610de0565b60056020525f9081526040902080546001820154600283015460039093015491926001600160a01b039091169160ff808216916101008104821691620100009091041686565b604080519687526001600160a01b0390951660208701529385019290925260ff908116606085015290151560808401521660a082015260c0015b60405180910390f35b61011d610218366004610de0565b61091d565b5f546001600160a01b03165b6040516001600160a01b039091168152602001610201565b61026361024f366004610de0565b60036020525f908152604090205460ff1681565b6040519015158152602001610201565b610286610281366004610de0565b610a9f565b604051610201959493929190610e3a565b6102296102a5366004610de0565b60026020525f90815260409020546001600160a01b031681565b6102636102cd366004610de0565b60016020525f908152604090205460ff1681565b6102636102ef366004610de0565b5f9081526001602052604090205460ff1690565b610316610311366004610de0565b610b5f565b6040516102019493929190931515845291151560208401526001600160a01b03166040830152606082015260800190565b61011d610355366004610ce2565b610bf7565b610263610368366004610ce2565b60046020525f908152604090205460ff1681565b5f8281526001602052604090205460ff16806103ad57505f828152600260205260409020546001600160a01b031615155b6103ef5760405162461bcd60e51b815260206004820152600e60248201526d12185cda081b9bdd08199bdd5b9960921b60448201526064015b60405180910390fd5b5f8281526003602052604090205460ff161561043f5760405162461bcd60e51b815260206004820152600f60248201526e105b1c9958591e481c995d9bdad959608a1b60448201526064016103e6565b5f828152600560205260408120600101546001600160a01b0316610479575f838152600260205260409020546001600160a01b0316610494565b5f838152600560205260409020600101546001600160a01b03165b90506001600160a01b0381163314806104b657505f546001600160a01b031633145b6105025760405162461bcd60e51b815260206004820152601860248201527f4e6f7420617574686f72697a656420746f207265766f6b65000000000000000060448201526064016103e6565b5f8381526003602090815260408083208054600160ff19918216811790925581845282852080549091169055600590925290912001546001600160a01b031615610571575f838152600560205260409020600301805460ff8416620100000262ffff0019909116176101001790555b60405160ff83168152339084907fdee87d5a47f91fd756be2a82d5f23e9c99a33d099a0e68a44b5c829200eb62e8906020015b60405180910390a3505050565b6105b9610c34565b6001600160a01b03811661060f5760405162461bcd60e51b815260206004820152601860248201527f5a65726f2061646472657373206e6f7420616c6c6f776564000000000000000060448201526064016103e6565b6001600160a01b0381165f81815260046020526040808220805460ff19166001179055517f8b4006ca14f23d4e7aa8d120d1ab7c3761d650eefac1a5d6732dbea94b54ea249190a250565b335f9081526004602052604090205460ff166106885760405162461bcd60e51b81526004016103e690610e77565b6106918261091d565b6040805160c0810182528381523360208083018281524284860181815260ff888116606088018181525f60808a0181815260a08b018281528e835260058a52918c90209a518b55965160018b0180546001600160a01b039092166001600160a01b0319909216919091179055935160028a01555160039098018054955193518316620100000262ff0000199415156101000261ffff1990971699909316989098179490941791909116179094558451938452908301529184917f7b30000fc9e2fe240356c3b960b5980a5d768d6c552bfed773cff2b77fd25625910160405180910390a35050565b610781610c34565b6001600160a01b0381165f81815260046020526040808220805460ff19169055517faf66545c919a3be306ee446d8f42a9558b5b022620df880517bc9593ec0f2d529190a250565b335f9081526004602052604090205460ff166107f75760405162461bcd60e51b81526004016103e690610e77565b5f838152600660205260409020600201541561084c5760405162461bcd60e51b815260206004820152601460248201527310985d18da08185b1c9958591e481cde5b98d95960621b60448201526064016103e6565b6040805160a0810182528481523360208083019182524283850190815260608401878152608085018781525f8a81526006909452959092208451815592516001840180546001600160a01b0319166001600160a01b03909216919091179055516002830155516003820155915190919060048201906108cb9082610f2c565b50905050336001600160a01b0316837e59c2daf8abcb1c810b31da1e35c26c1db9ddfc20201214fa616bbfec5780c084846040516105a4929190610fe8565b610912610c34565b61091b5f610c60565b565b335f9081526004602052604090205460ff1661094b5760405162461bcd60e51b81526004016103e690610e77565b5f8181526001602052604090205460ff16156109a95760405162461bcd60e51b815260206004820152601e60248201527f436572746966696361746520616c72656164792072656769737465726564000060448201526064016103e6565b5f818152600260205260409020546001600160a01b031615610a0d5760405162461bcd60e51b815260206004820152601a60248201527f436572746966696361746520616c72656164792065786973747300000000000060448201526064016103e6565b5f8181526003602052604090205460ff1615610a6b5760405162461bcd60e51b815260206004820152601860248201527f48617368207065726d616e656e746c79207265766f6b6564000000000000000060448201526064016103e6565b5f908152600160208181526040808420805460ff191690931790925560029052902080546001600160a01b03191633179055565b60066020525f90815260409020805460018201546002830154600384015460048501805494956001600160a01b039094169492939192610ade90610ea6565b80601f0160208091040260200160405190810160405280929190818152602001828054610b0a90610ea6565b8015610b555780601f10610b2c57610100808354040283529160200191610b55565b820191905f5260205f20905b815481529060010190602001808311610b3857829003601f168201915b5050505050905085565b5f8181526002602090815260408083205460038352818420546005909352908320600101546001600160a01b0391821615159360ff90931692918291859116610bbe575f868152600260205260409020546001600160a01b0316610bd9565b5f868152600560205260409020600101546001600160a01b03165b5f968752600560205260409096206002015494969395949392505050565b610bff610c34565b6001600160a01b038116610c2857604051631e4fbdf760e01b81525f60048201526024016103e6565b610c3181610c60565b50565b5f546001600160a01b0316331461091b5760405163118cdaa760e01b81523360048201526024016103e6565b5f80546001600160a01b038381166001600160a01b0319831681178455604051919092169283917f8be0079c531659141344cd1fd0a4f28419497f9722a3daafe3b4186f6b6457e09190a35050565b5f8060408385031215610cc0575f80fd5b82359150602083013560ff81168114610cd7575f80fd5b809150509250929050565b5f60208284031215610cf2575f80fd5b81356001600160a01b0381168114610d08575f80fd5b9392505050565b634e487b7160e01b5f52604160045260245ffd5b5f805f60608486031215610d35575f80fd5b8335925060208401359150604084013567ffffffffffffffff80821115610d5a575f80fd5b818601915086601f830112610d6d575f80fd5b813581811115610d7f57610d7f610d0f565b604051601f8201601f19908116603f01168101908382118183101715610da757610da7610d0f565b81604052828152896020848701011115610dbf575f80fd5b826020860160208301375f6020848301015280955050505050509250925092565b5f60208284031215610df0575f80fd5b5035919050565b5f81518084525f5b81811015610e1b57602081850181015186830182015201610dff565b505f602082860101526020601f19601f83011685010191505092915050565b85815260018060a01b038516602082015283604082015282606082015260a060808201525f610e6c60a0830184610df7565b979650505050505050565b6020808252601590820152742737ba1030baba3437b934bd32b21034b9b9bab2b960591b604082015260600190565b600181811c90821680610eba57607f821691505b602082108103610ed857634e487b7160e01b5f52602260045260245ffd5b50919050565b601f821115610f27575f81815260208120601f850160051c81016020861015610f045750805b601f850160051c820191505b81811015610f2357828155600101610f10565b5050505b505050565b815167ffffffffffffffff811115610f4657610f46610d0f565b610f5a81610f548454610ea6565b84610ede565b602080601f831160018114610f8d575f8415610f765750858301515b5f19600386901b1c1916600185901b178555610f23565b5f85815260208120601f198616915b82811015610fbb57888601518255948401946001909101908401610f9c565b5085821015610fd857878501515f19600388901b60f8161c191681555b5050505050600190811b01905550565b828152604060208201525f6110006040830184610df7565b94935050505056fea2646970667358221220080bd73f3ee9f92d4ff374462c3583dacf6dea6831411c8f598331cd9eb9320f64736f6c63430008140033",
  "linkReferences": {},
  "deployedLinkReferences": {},
  "immutableReferences": {},
  "inputSourceName": "project/contracts/EduCred.sol",
  "buildInfoId": "solc-0_8_20-2ca7adb9e195d08fd0bc3776abee982ec0db2b37"
}