{
  "_format": "hh3-artifact-1",
  "contractName": "EduCred",
  "sourceName": "contracts/EduCred.sol",
  "abi": [
    {
      "inputs": [],
      "stateMutability": "nonpayable",
      "type": "constructor"
    },
    {
      "anonymous": false,
      "inputs": [
        {
          "indexed": true,
          "internalType": "bytes32",
          "name": "certificateHash",
          "type": "bytes32"
        },
        {
          "indexed": false,
          "internalType": "uint256",
          "name": "timestamp",
          "type": "uint256"
        }
      ],
      "name": "HashStored",
      "type": "event"
    },
    {
      "inputs": [],
      "name": "owner",
      "outputs": [
        {
          "internalType": "address",
          "name": "",
          "type": "address"
        }
      ],
      "stateMutability": "view",
      "type": "function"
    },
    {
      "inputs": [
        {
          "internalType": "bytes32",
          "name": "_hash",
          "type": "bytes32"
        }
      ],
      "name": "storeHash",
      "outputs": [],
      "stateMutability": "nonpayable",
      "type": "function"
    },
    {
      "inputs": [
        {
          "internalType": "bytes32",
          "name": "",
          "type": "bytes32"
        }
      ],
      "name": "validCertificates",
      "outputs": [
        {
          "internalType": "bool",
          "name": "",
          "type": "bool"
        }
      ],
      "stateMutability": "view",
      "type": "function"
    },
    {
      "inputs": [
        {
          "internalType": "bytes32",
          "name": "_hash",
          "type": "bytes32"
        }
      ],
      "name": "verifyHash",
      "outputs": [
        {
          "internalType": "bool",
          "name": "",
          "type": "bool"
        }
      ],
      "stateMutability": "view",
      "type": "function"
    }
  ],
  "bytecode": "0x608060405234801561000f575f80fd5b50600180546001600160a01b031916331790556101ed8061002f5f395ff3fe608060405234801561000f575f80fd5b506004361061004a575f3560e01c80637fe888851461004e5780638da5cb5b14610063578063eec0a18a14610093578063ef020f4a146100c5575b5f80fd5b61006161005c3660046101a0565b6100e7565b005b600154610076906001600160a01b031681565b6040516001600160a01b0390911681526020015b60405180910390f35b6100b56100a13660046101a0565b5f6020819052908152604090205460ff1681565b604051901515815260200161008a565b6100b56100d33660046101a0565b5f9081526020819052604090205460ff1690565b5f8181526020819052604090205460ff16156101495760405162461bcd60e51b815260206004820152601e60248201527f436572746966696361746520616c726561647920726567697374657265640000604482015260640160405180910390fd5b5f8181526020819052604090819020805460ff191660011790555181907f7e233747e2431d173b8f98c0b86eb871978809a28f59a5e1327d00c942a40ee3906101959042815260200190565b60405180910390a250565b5f602082840312156101b0575f80fd5b503591905056fea2646970667358221220d035fc77c8ea775a2b1e0f868b92e4a9dccc2b6f77813382071a29f1cb98957b64736f6c63430008140033",
  "linkReferences": {},
  "deployedLinkReferences": {},
  "immutableReferences": {},
  "inputSourceName": "project/contracts/EduCred.sol",
  "buildInfoId": "solc-0_8_20-0cb57ab9334741e5d641753bd17ab77b6793c5be"
}